{
  "_format": "hh-sol-artifact-1",
  "contractName": "TrackPharma",
  "sourceName": "contracts/TrackPharma.sol",
  "abi": [
    {
      "inputs": [
        {
          "internalType": "string",
          "name": "_name",
          "type": "string"
        },
        {
          "internalType": "string",
          "name": "_email",
          "type": "string"
        }
      ],
      "stateMutability": "nonpayable",
      "type": "constructor"
    },
    {
      "anonymous": false,
      "inputs": [
        {
          "indexed": false,
          "internalType": "string",
          "name": "name",
          "type": "string"
        },
        {
          "indexed": false,
          "internalType": "string",
          "name": "manufacturerName",
          "type": "string"
        },
        {
          "indexed": false,
          "internalType": "string",
          "name": "barcodeId",
          "type": "string"
        },
        {
          "indexed": false,
          "internalType": "string",
          "name": "buyerName",
          "type": "string"
        },
        {
          "indexed": false,
          "internalType": "string",
          "name": "buyerEmail",
          "type": "string"
        }
      ],
      "name": "ItemOwnershipTransfer",
      "type": "event"
    },
    {
      "anonymous": false,
      "inputs": [
        {
          "indexed": false,
          "internalType": "string",
          "name": "name",
          "type": "string"
        },
        {
          "indexed": false,
          "internalType": "string",
          "name": "email",
          "type": "string"
        },
        {
          "indexed": false,
          "internalType": "enum Types.AccountRole",
          "name": "role",
          "type": "uint8"
        }
      ],
      "name": "LostAccount",
      "type": "event"
    },
    {
      "anonymous": false,
      "inputs": [
        {
          "indexed": false,
          "internalType": "string",
          "name": "name",
          "type": "string"
        },
        {
          "indexed": false,
          "internalType": "string",
          "name": "email",
          "type": "string"
        },
        {
          "indexed": false,
          "internalType": "enum Types.AccountRole",
          "name": "role",
          "type": "uint8"
        }
      ],
      "name": "NewAccount",
      "type": "event"
    },
    {
      "anonymous": false,
      "inputs": [
        {
          "indexed": false,
          "internalType": "string",
          "name": "name",
          "type": "string"
        },
        {
          "indexed": false,
          "internalType": "string",
          "name": "manufacturerName",
          "type": "string"
        },
        {
          "indexed": false,
          "internalType": "string",
          "name": "barcodeId",
          "type": "string"
        },
        {
          "indexed": false,
          "internalType": "uint256",
          "name": "manufacturedDate",
          "type": "uint256"
        },
        {
          "indexed": false,
          "internalType": "uint256",
          "name": "expiringDate",
          "type": "uint256"
        }
      ],
      "name": "NewItem",
      "type": "event"
    },
    {
      "inputs": [
        {
          "components": [
            {
              "internalType": "string",
              "name": "name",
              "type": "string"
            },
            {
              "internalType": "string",
              "name": "manufacturerName",
              "type": "string"
            },
            {
              "internalType": "address",
              "name": "manufacturer",
              "type": "address"
            },
            {
              "internalType": "uint256",
              "name": "manufacturedDate",
              "type": "uint256"
            },
            {
              "internalType": "uint256",
              "name": "expiringDate",
              "type": "uint256"
            },
            {
              "internalType": "bool",
              "name": "isInBatch",
              "type": "bool"
            },
            {
              "internalType": "uint256",
              "name": "batchCount",
              "type": "uint256"
            },
            {
              "internalType": "string",
              "name": "barcodeId",
              "type": "string"
            },
            {
              "internalType": "string",
              "name": "itemImage",
              "type": "string"
            },
            {
              "internalType": "enum Types.ItemType",
              "name": "itemType",
              "type": "uint8"
            },
            {
              "internalType": "string",
              "name": "usage",
              "type": "string"
            },
            {
              "internalType": "uint256",
              "name": "quantity",
              "type": "uint256"
            },
            {
              "internalType": "string[]",
              "name": "ingredients",
              "type": "string[]"
            }
          ],
          "internalType": "struct Types.Item",
          "name": "_item",
          "type": "tuple"
        },
        {
          "internalType": "uint256",
          "name": "currentTime_",
          "type": "uint256"
        }
      ],
      "name": "addNewItem",
      "outputs": [],
      "stateMutability": "nonpayable",
      "type": "function"
    },
    {
      "inputs": [
        {
          "components": [
            {
              "internalType": "enum Types.AccountRole",
              "name": "role",
              "type": "uint8"
            },
            {
              "internalType": "address",
              "name": "accountId",
              "type": "address"
            },
            {
              "internalType": "string",
              "name": "name",
              "type": "string"
            },
            {
              "internalType": "string",
              "name": "email",
              "type": "string"
            }
          ],
          "internalType": "struct Types.AccountDetails",
          "name": "account_",
          "type": "tuple"
        }
      ],
      "name": "addParty",
      "outputs": [],
      "stateMutability": "nonpayable",
      "type": "function"
    },
    {
      "inputs": [
        {
          "internalType": "address",
          "name": "Id",
          "type": "address"
        }
      ],
      "name": "getAccountDetails",
      "outputs": [
        {
          "components": [
            {
              "internalType": "enum Types.AccountRole",
              "name": "role",
              "type": "uint8"
            },
            {
              "internalType": "address",
              "name": "accountId",
              "type": "address"
            },
            {
              "internalType": "string",
              "name": "name",
              "type": "string"
            },
            {
              "internalType": "string",
              "name": "email",
              "type": "string"
            }
          ],
          "internalType": "struct Types.AccountDetails",
          "name": "",
          "type": "tuple"
        }
      ],
      "stateMutability": "view",
      "type": "function"
    },
    {
      "inputs": [],
      "name": "getAllItems",
      "outputs": [
        {
          "components": [
            {
              "internalType": "string",
              "name": "name",
              "type": "string"
            },
            {
              "internalType": "string",
              "name": "manufacturerName",
              "type": "string"
            },
            {
              "internalType": "address",
              "name": "manufacturer",
              "type": "address"
            },
            {
              "internalType": "uint256",
              "name": "manufacturedDate",
              "type": "uint256"
            },
            {
              "internalType": "uint256",
              "name": "expiringDate",
              "type": "uint256"
            },
            {
              "internalType": "bool",
              "name": "isInBatch",
              "type": "bool"
            },
            {
              "internalType": "uint256",
              "name": "batchCount",
              "type": "uint256"
            },
            {
              "internalType": "string",
              "name": "barcodeId",
              "type": "string"
            },
            {
              "internalType": "string",
              "name": "itemImage",
              "type": "string"
            },
            {
              "internalType": "enum Types.ItemType",
              "name": "itemType",
              "type": "uint8"
            },
            {
              "internalType": "string",
              "name": "usage",
              "type": "string"
            },
            {
              "internalType": "uint256",
              "name": "quantity",
              "type": "uint256"
            },
            {
              "internalType": "string[]",
              "name": "ingredients",
              "type": "string[]"
            }
          ],
          "internalType": "struct Types.Item[]",
          "name": "",
          "type": "tuple[]"
        }
      ],
      "stateMutability": "view",
      "type": "function"
    },
    {
      "inputs": [],
      "name": "getMyAccountsList",
      "outputs": [
        {
          "components": [
            {
              "internalType": "enum Types.AccountRole",
              "name": "role",
              "type": "uint8"
            },
            {
              "internalType": "address",
              "name": "accountId",
              "type": "address"
            },
            {
              "internalType": "string",
              "name": "name",
              "type": "string"
            },
            {
              "internalType": "string",
              "name": "email",
              "type": "string"
            }
          ],
          "internalType": "struct Types.AccountDetails[]",
          "name": "accountsList_",
          "type": "tuple[]"
        }
      ],
      "stateMutability": "view",
      "type": "function"
    },
    {
      "inputs": [],
      "name": "getMyDetails",
      "outputs": [
        {
          "components": [
            {
              "internalType": "enum Types.AccountRole",
              "name": "role",
              "type": "uint8"
            },
            {
              "internalType": "address",
              "name": "accountId",
              "type": "address"
            },
            {
              "internalType": "string",
              "name": "name",
              "type": "string"
            },
            {
              "internalType": "string",
              "name": "email",
              "type": "string"
            }
          ],
          "internalType": "struct Types.AccountDetails",
          "name": "",
          "type": "tuple"
        }
      ],
      "stateMutability": "view",
      "type": "function"
    },
    {
      "inputs": [],
      "name": "getMyItems",
      "outputs": [
        {
          "components": [
            {
              "internalType": "string",
              "name": "name",
              "type": "string"
            },
            {
              "internalType": "string",
              "name": "manufacturerName",
              "type": "string"
            },
            {
              "internalType": "address",
              "name": "manufacturer",
              "type": "address"
            },
            {
              "internalType": "uint256",
              "name": "manufacturedDate",
              "type": "uint256"
            },
            {
              "internalType": "uint256",
              "name": "expiringDate",
              "type": "uint256"
            },
            {
              "internalType": "bool",
              "name": "isInBatch",
              "type": "bool"
            },
            {
              "internalType": "uint256",
              "name": "batchCount",
              "type": "uint256"
            },
            {
              "internalType": "string",
              "name": "barcodeId",
              "type": "string"
            },
            {
              "internalType": "string",
              "name": "itemImage",
              "type": "string"
            },
            {
              "internalType": "enum Types.ItemType",
              "name": "itemType",
              "type": "uint8"
            },
            {
              "internalType": "string",
              "name": "usage",
              "type": "string"
            },
            {
              "internalType": "uint256",
              "name": "quantity",
              "type": "uint256"
            },
            {
              "internalType": "string[]",
              "name": "ingredients",
              "type": "string[]"
            }
          ],
          "internalType": "struct Types.Item[]",
          "name": "",
          "type": "tuple[]"
        }
      ],
      "stateMutability": "view",
      "type": "function"
    },
    {
      "inputs": [
        {
          "internalType": "string",
          "name": "barcodeId",
          "type": "string"
        }
      ],
      "name": "getSingleItem",
      "outputs": [
        {
          "components": [
            {
              "internalType": "string",
              "name": "name",
              "type": "string"
            },
            {
              "internalType": "string",
              "name": "manufacturerName",
              "type": "string"
            },
            {
              "internalType": "address",
              "name": "manufacturer",
              "type": "address"
            },
            {
              "internalType": "uint256",
              "name": "manufacturedDate",
              "type": "uint256"
            },
            {
              "internalType": "uint256",
              "name": "expiringDate",
              "type": "uint256"
            },
            {
              "internalType": "bool",
              "name": "isInBatch",
              "type": "bool"
            },
            {
              "internalType": "uint256",
              "name": "batchCount",
              "type": "uint256"
            },
            {
              "internalType": "string",
              "name": "barcodeId",
              "type": "string"
            },
            {
              "internalType": "string",
              "name": "itemImage",
              "type": "string"
            },
            {
              "internalType": "enum Types.ItemType",
              "name": "itemType",
              "type": "uint8"
            },
            {
              "internalType": "string",
              "name": "usage",
              "type": "string"
            },
            {
              "internalType": "uint256",
              "name": "quantity",
              "type": "uint256"
            },
            {
              "internalType": "string[]",
              "name": "ingredients",
              "type": "string[]"
            }
          ],
          "internalType": "struct Types.Item",
          "name": "",
          "type": "tuple"
        },
        {
          "components": [
            {
              "components": [
                {
                  "internalType": "address",
                  "name": "accountId",
                  "type": "address"
                },
                {
                  "internalType": "uint256",
                  "name": "timestamp",
                  "type": "uint256"
                }
              ],
              "internalType": "struct Types.AccountTransactions",
              "name": "manufacturer",
              "type": "tuple"
            },
            {
              "components": [
                {
                  "internalType": "address",
                  "name": "accountId",
                  "type": "address"
                },
                {
                  "internalType": "uint256",
                  "name": "timestamp",
                  "type": "uint256"
                }
              ],
              "internalType": "struct Types.AccountTransactions",
              "name": "distributor",
              "type": "tuple"
            },
            {
              "components": [
                {
                  "internalType": "address",
                  "name": "accountId",
                  "type": "address"
                },
                {
                  "internalType": "uint256",
                  "name": "timestamp",
                  "type": "uint256"
                }
              ],
              "internalType": "struct Types.AccountTransactions",
              "name": "retailer",
              "type": "tuple"
            },
            {
              "components": [
                {
                  "internalType": "address",
                  "name": "accountId",
                  "type": "address"
                },
                {
                  "internalType": "uint256",
                  "name": "timestamp",
                  "type": "uint256"
                }
              ],
              "internalType": "struct Types.AccountTransactions[]",
              "name": "customers",
              "type": "tuple[]"
            }
          ],
          "internalType": "struct Types.ItemHistory",
          "name": "",
          "type": "tuple"
        }
      ],
      "stateMutability": "view",
      "type": "function"
    },
    {
      "inputs": [
        {
          "internalType": "string",
          "name": "_name",
          "type": "string"
        },
        {
          "internalType": "string",
          "name": "_email",
          "type": "string"
        }
      ],
      "name": "registerManufacturer",
      "outputs": [],
      "stateMutability": "nonpayable",
      "type": "function"
    },
    {
      "inputs": [
        {
          "internalType": "address",
          "name": "partyId",
          "type": "address"
        },
        {
          "internalType": "string",
          "name": "barcodeId",
          "type": "string"
        },
        {
          "internalType": "uint256",
          "name": "currentTime_",
          "type": "uint256"
        }
      ],
      "name": "sellItem",
      "outputs": [],
      "stateMutability": "nonpayable",
      "type": "function"
    }
  ],
  "bytecode": "0x60806040523480156200001157600080fd5b506040516200673238038062006732833981810160405281019062000037919062000667565b60006040518060800160405280600060038111156200005b576200005a620006ec565b5b81526020013373ffffffffffffffffffffffffffffffffffffffff1681526020018481526020018381525090506200009981620000a260201b60201c565b50505062000983565b600073ffffffffffffffffffffffffffffffffffffffff16816020015173ffffffffffffffffffffffffffffffffffffffff16141562000119576040517f08c379a000000000000000000000000000000000000000000000000000000000815260040162000110906200077c565b60405180910390fd5b6200013381600001518260200151620002c060201b60201c565b1562000176576040517f08c379a00000000000000000000000000000000000000000000000000000000081526004016200016d9062000814565b60405180910390fd5b80600080836020015173ffffffffffffffffffffffffffffffffffffffff1673ffffffffffffffffffffffffffffffffffffffff16815260200190815260200160002060008201518160000160006101000a81548160ff02191690836003811115620001e757620001e6620006ec565b5b021790555060208201518160000160016101000a81548173ffffffffffffffffffffffffffffffffffffffff021916908373ffffffffffffffffffffffffffffffffffffffff1602179055506040820151816001019080519060200190620002519291906200041a565b506060820151816002019080519060200190620002709291906200041a565b509050507f35488f4c07069e6df6c089bc56476ef1daf1a424850ca489535b00cf818f0fe3816040015182606001518360000151604051620002b593929190620008d3565b60405180910390a150565b60008073ffffffffffffffffffffffffffffffffffffffff168273ffffffffffffffffffffffffffffffffffffffff161415620002fc57600080fd5b600073ffffffffffffffffffffffffffffffffffffffff166000808473ffffffffffffffffffffffffffffffffffffffff1673ffffffffffffffffffffffffffffffffffffffff16815260200190815260200160002060000160019054906101000a900473ffffffffffffffffffffffffffffffffffffffff1673ffffffffffffffffffffffffffffffffffffffff1614158015620004125750826003811115620003ac57620003ab620006ec565b5b6000808473ffffffffffffffffffffffffffffffffffffffff1673ffffffffffffffffffffffffffffffffffffffff16815260200190815260200160002060000160009054906101000a900460ff16600381111562000410576200040f620006ec565b5b145b905092915050565b82805462000428906200094d565b90600052602060002090601f0160209004810192826200044c576000855562000498565b82601f106200046757805160ff191683800117855562000498565b8280016001018555821562000498579182015b82811115620004975782518255916020019190600101906200047a565b5b509050620004a79190620004ab565b5090565b5b80821115620004c6576000816000905550600101620004ac565b5090565b6000604051905090565b600080fd5b600080fd5b600080fd5b600080fd5b6000601f19601f8301169050919050565b7f4e487b7100000000000000000000000000000000000000000000000000000000600052604160045260246000fd5b6200053382620004e8565b810181811067ffffffffffffffff82111715620005555762000554620004f9565b5b80604052505050565b60006200056a620004ca565b905062000578828262000528565b919050565b600067ffffffffffffffff8211156200059b576200059a620004f9565b5b620005a682620004e8565b9050602081019050919050565b60005b83811015620005d3578082015181840152602081019050620005b6565b83811115620005e3576000848401525b50505050565b600062000600620005fa846200057d565b6200055e565b9050828152602081018484840111156200061f576200061e620004e3565b5b6200062c848285620005b3565b509392505050565b600082601f8301126200064c576200064b620004de565b5b81516200065e848260208601620005e9565b91505092915050565b60008060408385031215620006815762000680620004d4565b5b600083015167ffffffffffffffff811115620006a257620006a1620004d9565b5b620006b08582860162000634565b925050602083015167ffffffffffffffff811115620006d457620006d3620004d9565b5b620006e28582860162000634565b9150509250929050565b7f4e487b7100000000000000000000000000000000000000000000000000000000600052602160045260246000fd5b600082825260208201905092915050565b7f4163636f756e742073686f756c64206e6f74206265206163636f756e74203000600082015250565b600062000764601f836200071b565b915062000771826200072c565b602082019050919050565b60006020820190508181036000830152620007978162000755565b9050919050565b7f63616e6e6f7420686176652073616d65206163636f756e74207769746820746860008201527f652073616d6520726f6c65000000000000000000000000000000000000000000602082015250565b6000620007fc602b836200071b565b915062000809826200079e565b604082019050919050565b600060208201905081810360008301526200082f81620007ed565b9050919050565b600081519050919050565b60006200084e8262000836565b6200085a81856200071b565b93506200086c818560208601620005b3565b6200087781620004e8565b840191505092915050565b60048110620008965762000895620006ec565b5b50565b6000819050620008a98262000882565b919050565b6000620008bb8262000899565b9050919050565b620008cd81620008ae565b82525050565b60006060820190508181036000830152620008ef818662000841565b9050818103602083015262000905818562000841565b9050620009166040830184620008c2565b949350505050565b7f4e487b7100000000000000000000000000000000000000000000000000000000600052602260045260246000fd5b600060028204905060018216806200096657607f821691505b602082108114156200097d576200097c6200091e565b5b50919050565b615d9f80620009936000396000f3fe608060405234801561001057600080fd5b506004361061009e5760003560e01c8063431bbb7e11610066578063431bbb7e1461015a5780634ba1d6aa146101785780634db3b2f014610196578063bcad6f52146101b2578063c5fb207d146101ce5761009e565b806306b7dd71146100a357806329ed922e146100bf5780632aceb534146100f057806330b15caa146101205780633f67c6f01461013c575b600080fd5b6100bd60048036038101906100b891906147d6565b6101ec565b005b6100d960048036038101906100d4919061481f565b6101f9565b6040516100e7929190614ce9565b60405180910390f35b61010a60048036038101906101059190614d20565b61021b565b6040516101179190614dff565b60405180910390f35b61013a60048036038101906101359190614e21565b610233565b005b61014461028f565b6040516101519190614fc5565b60405180910390f35b61016261029f565b60405161016f9190614dff565b60405180910390f35b6101806102b5565b60405161018d91906151e5565b60405180910390f35b6101b060048036038101906101ab919061554a565b61079c565b005b6101cc60048036038101906101c791906155a6565b6109a0565b005b6101d6610bfc565b6040516101e391906151e5565b60405180910390f35b6101f68133610c0b565b50565b6102016141de565b610209614270565b61021283611188565b91509150915091565b6102236142aa565b61022c8261189c565b9050919050565b600060405180608001604052806000600381111561025457610253614933565b5b81526020013373ffffffffffffffffffffffffffffffffffffffff16815260200184815260200183815250905061028a81611934565b505050565b606061029a33611b3b565b905090565b6102a76142aa565b6102b03361189c565b905090565b60606004805480602002602001604051908101604052809291908181526020016000905b8282101561079357838290600052602060002090600d0201604051806101a001604052908160008201805461030d90615644565b80601f016020809104026020016040519081016040528092919081815260200182805461033990615644565b80156103865780601f1061035b57610100808354040283529160200191610386565b820191906000526020600020905b81548152906001019060200180831161036957829003601f168201915b5050505050815260200160018201805461039f90615644565b80601f01602080910402602001604051908101604052809291908181526020018280546103cb90615644565b80156104185780601f106103ed57610100808354040283529160200191610418565b820191906000526020600020905b8154815290600101906020018083116103fb57829003601f168201915b505050505081526020016002820160009054906101000a900473ffffffffffffffffffffffffffffffffffffffff1673ffffffffffffffffffffffffffffffffffffffff1673ffffffffffffffffffffffffffffffffffffffff16815260200160038201548152602001600482015481526020016005820160009054906101000a900460ff16151515158152602001600682015481526020016007820180546104c090615644565b80601f01602080910402602001604051908101604052809291908181526020018280546104ec90615644565b80156105395780601f1061050e57610100808354040283529160200191610539565b820191906000526020600020905b81548152906001019060200180831161051c57829003601f168201915b5050505050815260200160088201805461055290615644565b80601f016020809104026020016040519081016040528092919081815260200182805461057e90615644565b80156105cb5780601f106105a0576101008083540402835291602001916105cb565b820191906000526020600020905b8154815290600101906020018083116105ae57829003601f168201915b505050505081526020016009820160009054906101000a900460ff1660048111156105f9576105f8614933565b5b600481111561060b5761060a614933565b5b8152602001600a8201805461061f90615644565b80601f016020809104026020016040519081016040528092919081815260200182805461064b90615644565b80156106985780601f1061066d57610100808354040283529160200191610698565b820191906000526020600020905b81548152906001019060200180831161067b57829003601f168201915b50505050508152602001600b8201548152602001600c8201805480602002602001604051908101604052809291908181526020016000905b8282101561077c5783829060005260206000200180546106ef90615644565b80601f016020809104026020016040519081016040528092919081815260200182805461071b90615644565b80156107685780601f1061073d57610100808354040283529160200191610768565b820191906000526020600020905b81548152906001019060200180831161074b57829003601f168201915b5050505050815260200190600101906106d0565b5050505081525050815260200190600101906102d9565b50505050905090565b600073ffffffffffffffffffffffffffffffffffffffff163373ffffffffffffffffffffffffffffffffffffffff16141561080c576040517f08c379a0000000000000000000000000000000000000000000000000000000008152600401610803906156d3565b60405180910390fd5b600073ffffffffffffffffffffffffffffffffffffffff166000803373ffffffffffffffffffffffffffffffffffffffff1673ffffffffffffffffffffffffffffffffffffffff16815260200190815260200160002060000160019054906101000a900473ffffffffffffffffffffffffffffffffffffffff1673ffffffffffffffffffffffffffffffffffffffff1614156108dd576040517f08c379a00000000000000000000000000000000000000000000000000000000081526004016108d49061573f565b60405180910390fd5b600060038111156108f1576108f0614933565b5b6000803373ffffffffffffffffffffffffffffffffffffffff1673ffffffffffffffffffffffffffffffffffffffff16815260200190815260200160002060000160009054906101000a900460ff16600381111561095257610951614933565b5b14610992576040517f08c379a0000000000000000000000000000000000000000000000000000000008152600401610989906157ab565b60405180910390fd5b61099c82826123f3565b5050565b6109a9836129e6565b6109e8576040517f08c379a00000000000000000000000000000000000000000000000000000000081526004016109df90615817565b60405180910390fd5b60008060008573ffffffffffffffffffffffffffffffffffffffff1673ffffffffffffffffffffffffffffffffffffffff1681526020019081526020016000206040518060800160405290816000820160009054906101000a900460ff166003811115610a5857610a57614933565b5b6003811115610a6a57610a69614933565b5b81526020016000820160019054906101000a900473ffffffffffffffffffffffffffffffffffffffff1673ffffffffffffffffffffffffffffffffffffffff1673ffffffffffffffffffffffffffffffffffffffff168152602001600182018054610ad490615644565b80601f0160208091040260200160405190810160405280929190818152602001828054610b0090615644565b8015610b4d5780601f10610b2257610100808354040283529160200191610b4d565b820191906000526020600020905b815481529060010190602001808311610b3057829003601f168201915b50505050508152602001600282018054610b6690615644565b80601f0160208091040260200160405190810160405280929190818152602001828054610b9290615644565b8015610bdf5780601f10610bb457610100808354040283529160200191610bdf565b820191906000526020600020905b815481529060010190602001808311610bc257829003601f168201915b5050505050815250509050610bf684848385612acb565b50505050565b6060610c0661334f565b905090565b600073ffffffffffffffffffffffffffffffffffffffff168173ffffffffffffffffffffffffffffffffffffffff161415610c4557600080fd5b600073ffffffffffffffffffffffffffffffffffffffff16826020015173ffffffffffffffffffffffffffffffffffffffff161415610c8357600080fd5b60006003811115610c9757610c96614933565b5b610ca0826139ce565b600001516003811115610cb657610cb5614933565b5b148015610ceb575060016003811115610cd257610cd1614933565b5b82600001516003811115610ce957610ce8614933565b5b145b15610e1a57600160008273ffffffffffffffffffffffffffffffffffffffff1673ffffffffffffffffffffffffffffffffffffffff16815260200190815260200160002082908060018154018082558091505060019003906000526020600020906003020160009091909190915060008201518160000160006101000a81548160ff02191690836003811115610d8457610d83614933565b5b021790555060208201518160000160016101000a81548173ffffffffffffffffffffffffffffffffffffffff021916908373ffffffffffffffffffffffffffffffffffffffff1602179055506040820151816001019080519060200190610dec9291906142fa565b506060820151816002019080519060200190610e099291906142fa565b505050610e1582611934565b611184565b60016003811115610e2e57610e2d614933565b5b610e37826139ce565b600001516003811115610e4d57610e4c614933565b5b148015610e82575060026003811115610e6957610e68614933565b5b82600001516003811115610e8057610e7f614933565b5b145b15610fb157600260008273ffffffffffffffffffffffffffffffffffffffff1673ffffffffffffffffffffffffffffffffffffffff16815260200190815260200160002082908060018154018082558091505060019003906000526020600020906003020160009091909190915060008201518160000160006101000a81548160ff02191690836003811115610f1b57610f1a614933565b5b021790555060208201518160000160016101000a81548173ffffffffffffffffffffffffffffffffffffffff021916908373ffffffffffffffffffffffffffffffffffffffff1602179055506040820151816001019080519060200190610f839291906142fa565b506060820151816002019080519060200190610fa09291906142fa565b505050610fac82611934565b611183565b60026003811115610fc557610fc4614933565b5b610fce826139ce565b600001516003811115610fe457610fe3614933565b5b1480156110185750600380811115610fff57610ffe614933565b5b8260000151600381111561101657611015614933565b5b145b1561114757600360008273ffffffffffffffffffffffffffffffffffffffff1673ffffffffffffffffffffffffffffffffffffffff16815260200190815260200160002082908060018154018082558091505060019003906000526020600020906003020160009091909190915060008201518160000160006101000a81548160ff021916908360038111156110b1576110b0614933565b5b021790555060208201518160000160016101000a81548173ffffffffffffffffffffffffffffffffffffffff021916908373ffffffffffffffffffffffffffffffffffffffff16021790555060408201518160010190805190602001906111199291906142fa565b5060608201518160020190805190602001906111369291906142fa565b50505061114282611934565b611182565b6040517f08c379a000000000000000000000000000000000000000000000000000000000815260040161117990615883565b60405180910390fd5b5b5b5050565b6111906141de565b611198614270565b6005836040516111a891906158df565b90815260200160405180910390206007846040516111c691906158df565b908152602001604051809103902081604051806101a00160405290816000820180546111f190615644565b80601f016020809104026020016040519081016040528092919081815260200182805461121d90615644565b801561126a5780601f1061123f5761010080835404028352916020019161126a565b820191906000526020600020905b81548152906001019060200180831161124d57829003601f168201915b5050505050815260200160018201805461128390615644565b80601f01602080910402602001604051908101604052809291908181526020018280546112af90615644565b80156112fc5780601f106112d1576101008083540402835291602001916112fc565b820191906000526020600020905b8154815290600101906020018083116112df57829003601f168201915b505050505081526020016002820160009054906101000a900473ffffffffffffffffffffffffffffffffffffffff1673ffffffffffffffffffffffffffffffffffffffff1673ffffffffffffffffffffffffffffffffffffffff16815260200160038201548152602001600482015481526020016005820160009054906101000a900460ff16151515158152602001600682015481526020016007820180546113a490615644565b80601f01602080910402602001604051908101604052809291908181526020018280546113d090615644565b801561141d5780601f106113f25761010080835404028352916020019161141d565b820191906000526020600020905b81548152906001019060200180831161140057829003601f168201915b5050505050815260200160088201805461143690615644565b80601f016020809104026020016040519081016040528092919081815260200182805461146290615644565b80156114af5780601f10611484576101008083540402835291602001916114af565b820191906000526020600020905b81548152906001019060200180831161149257829003601f168201915b505050505081526020016009820160009054906101000a900460ff1660048111156114dd576114dc614933565b5b60048111156114ef576114ee614933565b5b8152602001600a8201805461150390615644565b80601f016020809104026020016040519081016040528092919081815260200182805461152f90615644565b801561157c5780601f106115515761010080835404028352916020019161157c565b820191906000526020600020905b81548152906001019060200180831161155f57829003601f168201915b50505050508152602001600b8201548152602001600c8201805480602002602001604051908101604052809291908181526020016000905b828210156116605783829060005260206000200180546115d390615644565b80601f01602080910402602001604051908101604052809291908181526020018280546115ff90615644565b801561164c5780601f106116215761010080835404028352916020019161164c565b820191906000526020600020905b81548152906001019060200180831161162f57829003601f168201915b5050505050815260200190600101906115b4565b5050505081525050915080604051806080016040529081600082016040518060400160405290816000820160009054906101000a900473ffffffffffffffffffffffffffffffffffffffff1673ffffffffffffffffffffffffffffffffffffffff1673ffffffffffffffffffffffffffffffffffffffff1681526020016001820154815250508152602001600282016040518060400160405290816000820160009054906101000a900473ffffffffffffffffffffffffffffffffffffffff1673ffffffffffffffffffffffffffffffffffffffff1673ffffffffffffffffffffffffffffffffffffffff1681526020016001820154815250508152602001600482016040518060400160405290816000820160009054906101000a900473ffffffffffffffffffffffffffffffffffffffff1673ffffffffffffffffffffffffffffffffffffffff1673ffffffffffffffffffffffffffffffffffffffff168152602001600182015481525050815260200160068201805480602002602001604051908101604052809291908181526020016000905b8282101561188957838290600052602060002090600202016040518060400160405290816000820160009054906101000a900473ffffffffffffffffffffffffffffffffffffffff1673ffffffffffffffffffffffffffffffffffffffff1673ffffffffffffffffffffffffffffffffffffffff168152602001600182015481525050815260200190600101906117f7565b5050505081525050905091509150915091565b6118a46142aa565b600073ffffffffffffffffffffffffffffffffffffffff168273ffffffffffffffffffffffffffffffffffffffff1614156118de57600080fd5b600073ffffffffffffffffffffffffffffffffffffffff166118ff836139ce565b6020015173ffffffffffffffffffffffffffffffffffffffff16141561192457600080fd5b61192d826139ce565b9050919050565b600073ffffffffffffffffffffffffffffffffffffffff16816020015173ffffffffffffffffffffffffffffffffffffffff1614156119a8576040517f08c379a000000000000000000000000000000000000000000000000000000000815260040161199f90615942565b60405180910390fd5b6119ba81600001518260200151613c15565b156119fa576040517f08c379a00000000000000000000000000000000000000000000000000000000081526004016119f1906159d4565b60405180910390fd5b80600080836020015173ffffffffffffffffffffffffffffffffffffffff1673ffffffffffffffffffffffffffffffffffffffff16815260200190815260200160002060008201518160000160006101000a81548160ff02191690836003811115611a6857611a67614933565b5b021790555060208201518160000160016101000a81548173ffffffffffffffffffffffffffffffffffffffff021916908373ffffffffffffffffffffffffffffffffffffffff1602179055506040820151816001019080519060200190611ad09291906142fa565b506060820151816002019080519060200190611aed9291906142fa565b509050507f35488f4c07069e6df6c089bc56476ef1daf1a424850ca489535b00cf818f0fe3816040015182606001518360000151604051611b3093929190615a3c565b60405180910390a150565b6060600073ffffffffffffffffffffffffffffffffffffffff168273ffffffffffffffffffffffffffffffffffffffff161415611bad576040517f08c379a0000000000000000000000000000000000000000000000000000000008152600401611ba490615acd565b60405180910390fd5b600073ffffffffffffffffffffffffffffffffffffffff166000808473ffffffffffffffffffffffffffffffffffffffff1673ffffffffffffffffffffffffffffffffffffffff16815260200190815260200160002060000160019054906101000a900473ffffffffffffffffffffffffffffffffffffffff1673ffffffffffffffffffffffffffffffffffffffff161415611c48576123ee565b60006003811115611c5c57611c5b614933565b5b611c65836139ce565b600001516003811115611c7b57611c7a614933565b5b1415611ed257600160008373ffffffffffffffffffffffffffffffffffffffff1673ffffffffffffffffffffffffffffffffffffffff168152602001908152602001600020805480602002602001604051908101604052809291908181526020016000905b82821015611ec757838290600052602060002090600302016040518060800160405290816000820160009054906101000a900460ff166003811115611d2857611d27614933565b5b6003811115611d3a57611d39614933565b5b81526020016000820160019054906101000a900473ffffffffffffffffffffffffffffffffffffffff1673ffffffffffffffffffffffffffffffffffffffff1673ffffffffffffffffffffffffffffffffffffffff168152602001600182018054611da490615644565b80601f0160208091040260200160405190810160405280929190818152602001828054611dd090615644565b8015611e1d5780601f10611df257610100808354040283529160200191611e1d565b820191906000526020600020905b815481529060010190602001808311611e0057829003601f168201915b50505050508152602001600282018054611e3690615644565b80601f0160208091040260200160405190810160405280929190818152602001828054611e6290615644565b8015611eaf5780601f10611e8457610100808354040283529160200191611eaf565b820191906000526020600020905b815481529060010190602001808311611e9257829003601f168201915b50505050508152505081526020019060010190611ce0565b5050505090506123ed565b60016003811115611ee657611ee5614933565b5b611eef836139ce565b600001516003811115611f0557611f04614933565b5b141561215c57600260008373ffffffffffffffffffffffffffffffffffffffff1673ffffffffffffffffffffffffffffffffffffffff168152602001908152602001600020805480602002602001604051908101604052809291908181526020016000905b8282101561215157838290600052602060002090600302016040518060800160405290816000820160009054906101000a900460ff166003811115611fb257611fb1614933565b5b6003811115611fc457611fc3614933565b5b81526020016000820160019054906101000a900473ffffffffffffffffffffffffffffffffffffffff1673ffffffffffffffffffffffffffffffffffffffff1673ffffffffffffffffffffffffffffffffffffffff16815260200160018201805461202e90615644565b80601f016020809104026020016040519081016040528092919081815260200182805461205a90615644565b80156120a75780601f1061207c576101008083540402835291602001916120a7565b820191906000526020600020905b81548152906001019060200180831161208a57829003601f168201915b505050505081526020016002820180546120c090615644565b80601f01602080910402602001604051908101604052809291908181526020018280546120ec90615644565b80156121395780601f1061210e57610100808354040283529160200191612139565b820191906000526020600020905b81548152906001019060200180831161211c57829003601f168201915b50505050508152505081526020019060010190611f6a565b5050505090506123ec565b600260038111156121705761216f614933565b5b612179836139ce565b60000151600381111561218f5761218e614933565b5b14156123e657600360008373ffffffffffffffffffffffffffffffffffffffff1673ffffffffffffffffffffffffffffffffffffffff168152602001908152602001600020805480602002602001604051908101604052809291908181526020016000905b828210156123db57838290600052602060002090600302016040518060800160405290816000820160009054906101000a900460ff16600381111561223c5761223b614933565b5b600381111561224e5761224d614933565b5b81526020016000820160019054906101000a900473ffffffffffffffffffffffffffffffffffffffff1673ffffffffffffffffffffffffffffffffffffffff1673ffffffffffffffffffffffffffffffffffffffff1681526020016001820180546122b890615644565b80601f01602080910402602001604051908101604052809291908181526020018280546122e490615644565b80156123315780601f1061230657610100808354040283529160200191612331565b820191906000526020600020905b81548152906001019060200180831161231457829003601f168201915b5050505050815260200160028201805461234a90615644565b80601f016020809104026020016040519081016040528092919081815260200182805461237690615644565b80156123c35780601f10612398576101008083540402835291602001916123c3565b820191906000526020600020905b8154815290600101906020018083116123a657829003601f168201915b505050505081525050815260200190600101906121f4565b5050505090506123eb565b6123ee565b5b5b5b919050565b8160e001516124ba60058260405161240b91906158df565b9081526020016040518091039020600701805461242790615644565b80601f016020809104026020016040519081016040528092919081815260200182805461245390615644565b80156124a05780601f10612475576101008083540402835291602001916124a0565b820191906000526020600020905b81548152906001019060200180831161248357829003601f168201915b505050505060405180602001604052806000815250613d67565b6124c357600080fd5b3373ffffffffffffffffffffffffffffffffffffffff16836040015173ffffffffffffffffffffffffffffffffffffffff1614612535576040517f08c379a000000000000000000000000000000000000000000000000000000000815260040161252c906157ab565b60405180910390fd5b60048390806001815401808255809150506001900390600052602060002090600d0201600090919091909150600082015181600001908051906020019061257d9291906142fa565b50602082015181600101908051906020019061259a9291906142fa565b5060408201518160020160006101000a81548173ffffffffffffffffffffffffffffffffffffffff021916908373ffffffffffffffffffffffffffffffffffffffff160217905550606082015181600301556080820151816004015560a08201518160050160006101000a81548160ff02191690831515021790555060c0820151816006015560e082015181600701908051906020019061263c9291906142fa565b5061010082015181600801908051906020019061265a9291906142fa565b506101208201518160090160006101000a81548160ff0219169083600481111561268757612686614933565b5b021790555061014082015181600a0190805190602001906126a99291906142fa565b5061016082015181600b015561018082015181600c0190805190602001906126d2929190614380565b5050508260058460e001516040516126ea91906158df565b908152602001604051809103902060008201518160000190805190602001906127149291906142fa565b5060208201518160010190805190602001906127319291906142fa565b5060408201518160020160006101000a81548173ffffffffffffffffffffffffffffffffffffffff021916908373ffffffffffffffffffffffffffffffffffffffff160217905550606082015181600301556080820151816004015560a08201518160050160006101000a81548160ff02191690831515021790555060c0820151816006015560e08201518160070190805190602001906127d39291906142fa565b506101008201518160080190805190602001906127f19291906142fa565b506101208201518160090160006101000a81548160ff0219169083600481111561281e5761281d614933565b5b021790555061014082015181600a0190805190602001906128409291906142fa565b5061016082015181600b015561018082015181600c019080519060200190612869929190614380565b5090505060405180604001604052803373ffffffffffffffffffffffffffffffffffffffff1681526020018381525060078460e001516040516128ac91906158df565b908152602001604051809103902060000160008201518160000160006101000a81548173ffffffffffffffffffffffffffffffffffffffff021916908373ffffffffffffffffffffffffffffffffffffffff16021790555060208201518160010155905050600660003373ffffffffffffffffffffffffffffffffffffffff1673ffffffffffffffffffffffffffffffffffffffff1681526020019081526020016000208360e0015190806001815401808255809150506001900390600052602060002001600090919091909150908051906020019061298d9291906142fa565b507fc0e7c5cb71ddf9034382f73f061f2a18fcc3eea6d6f643244056f7689ef8f6e2836000015184602001518560e00151866060015187608001516040516129d9959493929190615afc565b60405180910390a1505050565b600080600073ffffffffffffffffffffffffffffffffffffffff168373ffffffffffffffffffffffffffffffffffffffff161415612a275780915050612ac6565b600073ffffffffffffffffffffffffffffffffffffffff166000808573ffffffffffffffffffffffffffffffffffffffff1673ffffffffffffffffffffffffffffffffffffffff16815260200190815260200160002060000160019054906101000a900473ffffffffffffffffffffffffffffffffffffffff1673ffffffffffffffffffffffffffffffffffffffff1614612ac157600190505b809150505b919050565b82612b8e600582604051612adf91906158df565b90815260200160405180910390206007018054612afb90615644565b80601f0160208091040260200160405190810160405280929190818152602001828054612b2790615644565b8015612b745780601f10612b4957610100808354040283529160200191612b74565b820191906000526020600020905b815481529060010190602001808311612b5757829003601f168201915b505050505060405180602001604052806000815250613d67565b15612b9857600080fd5b6000600585604051612baa91906158df565b9081526020016040518091039020604051806101a0016040529081600082018054612bd490615644565b80601f0160208091040260200160405190810160405280929190818152602001828054612c0090615644565b8015612c4d5780601f10612c2257610100808354040283529160200191612c4d565b820191906000526020600020905b815481529060010190602001808311612c3057829003601f168201915b50505050508152602001600182018054612c6690615644565b80601f0160208091040260200160405190810160405280929190818152602001828054612c9290615644565b8015612cdf5780601f10612cb457610100808354040283529160200191612cdf565b820191906000526020600020905b815481529060010190602001808311612cc257829003601f168201915b505050505081526020016002820160009054906101000a900473ffffffffffffffffffffffffffffffffffffffff1673ffffffffffffffffffffffffffffffffffffffff1673ffffffffffffffffffffffffffffffffffffffff16815260200160038201548152602001600482015481526020016005820160009054906101000a900460ff1615151515815260200160068201548152602001600782018054612d8790615644565b80601f0160208091040260200160405190810160405280929190818152602001828054612db390615644565b8015612e005780601f10612dd557610100808354040283529160200191612e00565b820191906000526020600020905b815481529060010190602001808311612de357829003601f168201915b50505050508152602001600882018054612e1990615644565b80601f0160208091040260200160405190810160405280929190818152602001828054612e4590615644565b8015612e925780601f10612e6757610100808354040283529160200191612e92565b820191906000526020600020905b815481529060010190602001808311612e7557829003601f168201915b505050505081526020016009820160009054906101000a900460ff166004811115612ec057612ebf614933565b5b6004811115612ed257612ed1614933565b5b8152602001600a82018054612ee690615644565b80601f0160208091040260200160405190810160405280929190818152602001828054612f1290615644565b8015612f5f5780601f10612f3457610100808354040283529160200191612f5f565b820191906000526020600020905b815481529060010190602001808311612f4257829003601f168201915b50505050508152602001600b8201548152602001600c8201805480602002602001604051908101604052809291908181526020016000905b82821015613043578382906000526020600020018054612fb690615644565b80601f0160208091040260200160405190810160405280929190818152602001828054612fe290615644565b801561302f5780601f106130045761010080835404028352916020019161302f565b820191906000526020600020905b81548152906001019060200180831161301257829003601f168201915b505050505081526020019060010190612f97565b5050505081525050905060006040518060400160405280866020015173ffffffffffffffffffffffffffffffffffffffff1681526020018581525090506001600381111561309457613093614933565b5b856000015160038111156130ab576130aa614933565b5b141561312c57806007876040516130c291906158df565b908152602001604051809103902060020160008201518160000160006101000a81548173ffffffffffffffffffffffffffffffffffffffff021916908373ffffffffffffffffffffffffffffffffffffffff160217905550602082015181600101559050506132e8565b600260038111156131405761313f614933565b5b8560000151600381111561315757613156614933565b5b14156131d8578060078760405161316e91906158df565b908152602001604051809103902060040160008201518160000160006101000a81548173ffffffffffffffffffffffffffffffffffffffff021916908373ffffffffffffffffffffffffffffffffffffffff160217905550602082015181600101559050506132e7565b6003808111156131eb576131ea614933565b5b8560000151600381111561320257613201614933565b5b14156132ab5760078660405161321891906158df565b908152602001604051809103902060060181908060018154018082558091505060019003906000526020600020906002020160009091909190915060008201518160000160006101000a81548173ffffffffffffffffffffffffffffffffffffffff021916908373ffffffffffffffffffffffffffffffffffffffff1602179055506020820151816001015550506132e6565b6040517f08c379a00000000000000000000000000000000000000000000000000000000081526004016132dd90615883565b60405180910390fd5b5b5b6132f3338888613dc0565b7f3e0c714bf3c210532b7ee4691c21f5b553c934dbc77829ba676c1b5b34d42ed5826000015183602001518460e001518860400151896060015160405161333e959493929190615b64565b60405180910390a150505050505050565b60606000600660003373ffffffffffffffffffffffffffffffffffffffff1673ffffffffffffffffffffffffffffffffffffffff168152602001908152602001600020805480602002602001604051908101604052809291908181526020016000905b8282101561345e5783829060005260206000200180546133d190615644565b80601f01602080910402602001604051908101604052809291908181526020018280546133fd90615644565b801561344a5780601f1061341f5761010080835404028352916020019161344a565b820191906000526020600020905b81548152906001019060200180831161342d57829003601f168201915b5050505050815260200190600101906133b2565b5050505090506000815167ffffffffffffffff81111561348157613480614569565b5b6040519080825280602002602001820160405280156134ba57816020015b6134a76141de565b81526020019060019003908161349f5790505b50905060005b82518110156139c55760058382815181106134de576134dd615bda565b5b60200260200101516040516134f391906158df565b9081526020016040518091039020604051806101a001604052908160008201805461351d90615644565b80601f016020809104026020016040519081016040528092919081815260200182805461354990615644565b80156135965780601f1061356b57610100808354040283529160200191613596565b820191906000526020600020905b81548152906001019060200180831161357957829003601f168201915b505050505081526020016001820180546135af90615644565b80601f01602080910402602001604051908101604052809291908181526020018280546135db90615644565b80156136285780601f106135fd57610100808354040283529160200191613628565b820191906000526020600020905b81548152906001019060200180831161360b57829003601f168201915b505050505081526020016002820160009054906101000a900473ffffffffffffffffffffffffffffffffffffffff1673ffffffffffffffffffffffffffffffffffffffff1673ffffffffffffffffffffffffffffffffffffffff16815260200160038201548152602001600482015481526020016005820160009054906101000a900460ff16151515158152602001600682015481526020016007820180546136d090615644565b80601f01602080910402602001604051908101604052809291908181526020018280546136fc90615644565b80156137495780601f1061371e57610100808354040283529160200191613749565b820191906000526020600020905b81548152906001019060200180831161372c57829003601f168201915b5050505050815260200160088201805461376290615644565b80601f016020809104026020016040519081016040528092919081815260200182805461378e90615644565b80156137db5780601f106137b0576101008083540402835291602001916137db565b820191906000526020600020905b8154815290600101906020018083116137be57829003601f168201915b505050505081526020016009820160009054906101000a900460ff16600481111561380957613808614933565b5b600481111561381b5761381a614933565b5b8152602001600a8201805461382f90615644565b80601f016020809104026020016040519081016040528092919081815260200182805461385b90615644565b80156138a85780601f1061387d576101008083540402835291602001916138a8565b820191906000526020600020905b81548152906001019060200180831161388b57829003601f168201915b50505050508152602001600b8201548152602001600c8201805480602002602001604051908101604052809291908181526020016000905b8282101561398c5783829060005260206000200180546138ff90615644565b80601f016020809104026020016040519081016040528092919081815260200182805461392b90615644565b80156139785780601f1061394d57610100808354040283529160200191613978565b820191906000526020600020905b81548152906001019060200180831161395b57829003601f168201915b5050505050815260200190600101906138e0565b50505050815250508282815181106139a7576139a6615bda565b5b602002602001018190525080806139bd90615c38565b9150506134c0565b50809250505090565b6139d66142aa565b600073ffffffffffffffffffffffffffffffffffffffff168273ffffffffffffffffffffffffffffffffffffffff161415613a1057600080fd5b6000808373ffffffffffffffffffffffffffffffffffffffff1673ffffffffffffffffffffffffffffffffffffffff1681526020019081526020016000206040518060800160405290816000820160009054906101000a900460ff166003811115613a7e57613a7d614933565b5b6003811115613a9057613a8f614933565b5b81526020016000820160019054906101000a900473ffffffffffffffffffffffffffffffffffffffff1673ffffffffffffffffffffffffffffffffffffffff1673ffffffffffffffffffffffffffffffffffffffff168152602001600182018054613afa90615644565b80601f0160208091040260200160405190810160405280929190818152602001828054613b2690615644565b8015613b735780601f10613b4857610100808354040283529160200191613b73565b820191906000526020600020905b815481529060010190602001808311613b5657829003601f168201915b50505050508152602001600282018054613b8c90615644565b80601f0160208091040260200160405190810160405280929190818152602001828054613bb890615644565b8015613c055780601f10613bda57610100808354040283529160200191613c05565b820191906000526020600020905b815481529060010190602001808311613be857829003601f168201915b5050505050815250509050919050565b60008073ffffffffffffffffffffffffffffffffffffffff168273ffffffffffffffffffffffffffffffffffffffff161415613c5057600080fd5b600073ffffffffffffffffffffffffffffffffffffffff166000808473ffffffffffffffffffffffffffffffffffffffff1673ffffffffffffffffffffffffffffffffffffffff16815260200190815260200160002060000160019054906101000a900473ffffffffffffffffffffffffffffffffffffffff1673ffffffffffffffffffffffffffffffffffffffff1614158015613d5f5750826003811115613cfc57613cfb614933565b5b6000808473ffffffffffffffffffffffffffffffffffffffff1673ffffffffffffffffffffffffffffffffffffffff16815260200190815260200160002060000160009054906101000a900460ff166003811115613d5d57613d5c614933565b5b145b905092915050565b600081604051602001613d7a91906158df565b6040516020818303038152906040528051906020012083604051602001613da191906158df565b6040516020818303038152906040528051906020012014905092915050565b600660008373ffffffffffffffffffffffffffffffffffffffff1673ffffffffffffffffffffffffffffffffffffffff16815260200190815260200160002081908060018154018082558091505060019003906000526020600020016000909190919091509080519060200190613e389291906142fa565b506000600660008573ffffffffffffffffffffffffffffffffffffffff1673ffffffffffffffffffffffffffffffffffffffff168152602001908152602001600020805480602002602001604051908101604052809291908181526020016000905b82821015613f46578382906000526020600020018054613eb990615644565b80601f0160208091040260200160405190810160405280929190818152602001828054613ee590615644565b8015613f325780601f10613f0757610100808354040283529160200191613f32565b820191906000526020600020905b815481529060010190602001808311613f1557829003601f168201915b505050505081526020019060010190613e9a565b505050509050600060018251613f5c9190615c81565b905060005b8251811015613fae57613f8e838281518110613f8057613f7f615bda565b5b602002602001015185613d67565b15613f9b57809150613fae565b8080613fa690615c38565b915050613f61565b5081518110613fc057613fbf615cd7565b5b60018251141561401a57600660008673ffffffffffffffffffffffffffffffffffffffff1673ffffffffffffffffffffffffffffffffffffffff168152602001908152602001600020600061401591906143e0565b6141d7565b600660008673ffffffffffffffffffffffffffffffffffffffff1673ffffffffffffffffffffffffffffffffffffffff168152602001908152602001600020600183516140679190615d06565b8154811061407857614077615bda565b5b90600052602060002001600660008773ffffffffffffffffffffffffffffffffffffffff1673ffffffffffffffffffffffffffffffffffffffff16815260200190815260200160002082815481106140d3576140d2615bda565b5b906000526020600020019080546140e990615644565b6140f4929190614401565b50600660008673ffffffffffffffffffffffffffffffffffffffff1673ffffffffffffffffffffffffffffffffffffffff168152602001908152602001600020600183516141429190615d06565b8154811061415357614152615bda565b5b906000526020600020016000614169919061448e565b600660008673ffffffffffffffffffffffffffffffffffffffff1673ffffffffffffffffffffffffffffffffffffffff1681526020019081526020016000208054806141b8576141b7615d3a565b5b6001900381819060005260206000200160006141d4919061448e565b90555b5050505050565b604051806101a001604052806060815260200160608152602001600073ffffffffffffffffffffffffffffffffffffffff16815260200160008152602001600081526020016000151581526020016000815260200160608152602001606081526020016000600481111561425557614254614933565b5b81526020016060815260200160008152602001606081525090565b60405180608001604052806142836144ce565b81526020016142906144ce565b815260200161429d6144ce565b8152602001606081525090565b6040518060800160405280600060038111156142c9576142c8614933565b5b8152602001600073ffffffffffffffffffffffffffffffffffffffff16815260200160608152602001606081525090565b82805461430690615644565b90600052602060002090601f016020900481019282614328576000855561436f565b82601f1061434157805160ff191683800117855561436f565b8280016001018555821561436f579182015b8281111561436e578251825591602001919060010190614353565b5b50905061437c91906144fe565b5090565b8280548282559060005260206000209081019282156143cf579160200282015b828111156143ce5782518290805190602001906143be9291906142fa565b50916020019190600101906143a0565b5b5090506143dc919061451b565b5090565b50805460008255906000526020600020908101906143fe919061451b565b50565b82805461440d90615644565b90600052602060002090601f01602090048101928261442f576000855561447d565b82601f10614440578054855561447d565b8280016001018555821561447d57600052602060002091601f016020900482015b8281111561447c578254825591600101919060010190614461565b5b50905061448a91906144fe565b5090565b50805461449a90615644565b6000825580601f106144ac57506144cb565b601f0160209004906000526020600020908101906144ca91906144fe565b5b50565b6040518060400160405280600073ffffffffffffffffffffffffffffffffffffffff168152602001600081525090565b5b808211156145175760008160009055506001016144ff565b5090565b5b8082111561453b5760008181614532919061448e565b5060010161451c565b5090565b6000604051905090565b600080fd5b600080fd5b600080fd5b6000601f19601f8301169050919050565b7f4e487b7100000000000000000000000000000000000000000000000000000000600052604160045260246000fd5b6145a182614558565b810181811067ffffffffffffffff821117156145c0576145bf614569565b5b80604052505050565b60006145d361453f565b90506145df8282614598565b919050565b600080fd5b600481106145f657600080fd5b50565b600081359050614608816145e9565b92915050565b600073ffffffffffffffffffffffffffffffffffffffff82169050919050565b60006146398261460e565b9050919050565b6146498161462e565b811461465457600080fd5b50565b60008135905061466681614640565b92915050565b600080fd5b600080fd5b600067ffffffffffffffff82111561469157614690614569565b5b61469a82614558565b9050602081019050919050565b82818337600083830152505050565b60006146c96146c484614676565b6145c9565b9050828152602081018484840111156146e5576146e4614671565b5b6146f08482856146a7565b509392505050565b600082601f83011261470d5761470c61466c565b5b813561471d8482602086016146b6565b91505092915050565b60006080828403121561473c5761473b614553565b5b61474660806145c9565b90506000614756848285016145f9565b600083015250602061476a84828501614657565b602083015250604082013567ffffffffffffffff81111561478e5761478d6145e4565b5b61479a848285016146f8565b604083015250606082013567ffffffffffffffff8111156147be576147bd6145e4565b5b6147ca848285016146f8565b60608301525092915050565b6000602082840312156147ec576147eb614549565b5b600082013567ffffffffffffffff81111561480a5761480961454e565b5b61481684828501614726565b91505092915050565b60006020828403121561483557614834614549565b5b600082013567ffffffffffffffff8111156148535761485261454e565b5b61485f848285016146f8565b91505092915050565b600081519050919050565b600082825260208201905092915050565b60005b838110156148a2578082015181840152602081019050614887565b838111156148b1576000848401525b50505050565b60006148c282614868565b6148cc8185614873565b93506148dc818560208601614884565b6148e581614558565b840191505092915050565b6148f98161462e565b82525050565b6000819050919050565b614912816148ff565b82525050565b60008115159050919050565b61492d81614918565b82525050565b7f4e487b7100000000000000000000000000000000000000000000000000000000600052602160045260246000fd5b6005811061497357614972614933565b5b50565b600081905061498482614962565b919050565b600061499482614976565b9050919050565b6149a481614989565b82525050565b600081519050919050565b600082825260208201905092915050565b6000819050602082019050919050565b60006149e283836148b7565b905092915050565b6000602082019050919050565b6000614a02826149aa565b614a0c81856149b5565b935083602082028501614a1e856149c6565b8060005b85811015614a5a5784840389528151614a3b85826149d6565b9450614a46836149ea565b925060208a01995050600181019050614a22565b50829750879550505050505092915050565b60006101a0830160008301518482036000860152614a8a82826148b7565b91505060208301518482036020860152614aa482826148b7565b9150506040830151614ab960408601826148f0565b506060830151614acc6060860182614909565b506080830151614adf6080860182614909565b5060a0830151614af260a0860182614924565b5060c0830151614b0560c0860182614909565b5060e083015184820360e0860152614b1d82826148b7565b915050610100830151848203610100860152614b3982826148b7565b915050610120830151614b5061012086018261499b565b50610140830151848203610140860152614b6a82826148b7565b915050610160830151614b81610160860182614909565b50610180830151848203610180860152614b9b82826149f7565b9150508091505092915050565b604082016000820151614bbe60008501826148f0565b506020820151614bd16020850182614909565b50505050565b600081519050919050565b600082825260208201905092915050565b6000819050602082019050919050565b6000614c0f8383614ba8565b60408301905092915050565b6000602082019050919050565b6000614c3382614bd7565b614c3d8185614be2565b9350614c4883614bf3565b8060005b83811015614c79578151614c608882614c03565b9750614c6b83614c1b565b925050600181019050614c4c565b5085935050505092915050565b600060e083016000830151614c9e6000860182614ba8565b506020830151614cb16040860182614ba8565b506040830151614cc46080860182614ba8565b50606083015184820360c0860152614cdc8282614c28565b9150508091505092915050565b60006040820190508181036000830152614d038185614a6c565b90508181036020830152614d178184614c86565b90509392505050565b600060208284031215614d3657614d35614549565b5b6000614d4484828501614657565b91505092915050565b60048110614d5e57614d5d614933565b5b50565b6000819050614d6f82614d4d565b919050565b6000614d7f82614d61565b9050919050565b614d8f81614d74565b82525050565b6000608083016000830151614dad6000860182614d86565b506020830151614dc060208601826148f0565b5060408301518482036040860152614dd882826148b7565b91505060608301518482036060860152614df282826148b7565b9150508091505092915050565b60006020820190508181036000830152614e198184614d95565b905092915050565b60008060408385031215614e3857614e37614549565b5b600083013567ffffffffffffffff811115614e5657614e5561454e565b5b614e62858286016146f8565b925050602083013567ffffffffffffffff811115614e8357614e8261454e565b5b614e8f858286016146f8565b9150509250929050565b600081519050919050565b600082825260208201905092915050565b6000819050602082019050919050565b6000608083016000830151614edd6000860182614d86565b506020830151614ef060208601826148f0565b5060408301518482036040860152614f0882826148b7565b91505060608301518482036060860152614f2282826148b7565b9150508091505092915050565b6000614f3b8383614ec5565b905092915050565b6000602082019050919050565b6000614f5b82614e99565b614f658185614ea4565b935083602082028501614f7785614eb5565b8060005b85811015614fb35784840389528151614f948582614f2f565b9450614f9f83614f43565b925060208a01995050600181019050614f7b565b50829750879550505050505092915050565b60006020820190508181036000830152614fdf8184614f50565b905092915050565b600081519050919050565b600082825260208201905092915050565b6000819050602082019050919050565b60006101a083016000830151848203600086015261503182826148b7565b9150506020830151848203602086015261504b82826148b7565b915050604083015161506060408601826148f0565b5060608301516150736060860182614909565b5060808301516150866080860182614909565b5060a083015161509960a0860182614924565b5060c08301516150ac60c0860182614909565b5060e083015184820360e08601526150c482826148b7565b9150506101008301518482036101008601526150e082826148b7565b9150506101208301516150f761012086018261499b565b5061014083015184820361014086015261511182826148b7565b915050610160830151615128610160860182614909565b5061018083015184820361018086015261514282826149f7565b9150508091505092915050565b600061515b8383615013565b905092915050565b6000602082019050919050565b600061517b82614fe7565b6151858185614ff2565b93508360208202850161519785615003565b8060005b858110156151d357848403895281516151b4858261514f565b94506151bf83615163565b925060208a0199505060018101905061519b565b50829750879550505050505092915050565b600060208201905081810360008301526151ff8184615170565b905092915050565b615210816148ff565b811461521b57600080fd5b50565b60008135905061522d81615207565b92915050565b61523c81614918565b811461524757600080fd5b50565b60008135905061525981615233565b92915050565b6005811061526c57600080fd5b50565b60008135905061527e8161525f565b92915050565b600067ffffffffffffffff82111561529f5761529e614569565b5b602082029050602081019050919050565b600080fd5b60006152c86152c384615284565b6145c9565b905080838252602082019050602084028301858111156152eb576152ea6152b0565b5b835b8181101561533257803567ffffffffffffffff8111156153105761530f61466c565b5b80860161531d89826146f8565b855260208501945050506020810190506152ed565b5050509392505050565b600082601f8301126153515761535061466c565b5b81356153618482602086016152b5565b91505092915050565b60006101a0828403121561538157615380614553565b5b61538c6101a06145c9565b9050600082013567ffffffffffffffff8111156153ac576153ab6145e4565b5b6153b8848285016146f8565b600083015250602082013567ffffffffffffffff8111156153dc576153db6145e4565b5b6153e8848285016146f8565b60208301525060406153fc84828501614657565b60408301525060606154108482850161521e565b60608301525060806154248482850161521e565b60808301525060a06154388482850161524a565b60a08301525060c061544c8482850161521e565b60c08301525060e082013567ffffffffffffffff8111156154705761546f6145e4565b5b61547c848285016146f8565b60e08301525061010082013567ffffffffffffffff8111156154a1576154a06145e4565b5b6154ad848285016146f8565b610100830152506101206154c38482850161526f565b6101208301525061014082013567ffffffffffffffff8111156154e9576154e86145e4565b5b6154f5848285016146f8565b6101408301525061016061550b8482850161521e565b6101608301525061018082013567ffffffffffffffff811115615531576155306145e4565b5b61553d8482850161533c565b6101808301525092915050565b6000806040838503121561556157615560614549565b5b600083013567ffffffffffffffff81111561557f5761557e61454e565b5b61558b8582860161536a565b925050602061559c8582860161521e565b9150509250929050565b6000806000606084860312156155bf576155be614549565b5b60006155cd86828701614657565b935050602084013567ffffffffffffffff8111156155ee576155ed61454e565b5b6155fa868287016146f8565b925050604061560b8682870161521e565b9150509250925092565b7f4e487b7100000000000000000000000000000000000000000000000000000000600052602260045260246000fd5b6000600282049050600182168061565c57607f821691505b602082108114156156705761566f615615565b5b50919050565b600082825260208201905092915050565b7f53656e6465722773206164647265737320697320456d70747900000000000000600082015250565b60006156bd601983615676565b91506156c882615687565b602082019050919050565b600060208201905081810360008301526156ec816156b0565b9050919050565b7f6163636f756e742773206164647265737320697320456d707479000000000000600082015250565b6000615729601a83615676565b9150615734826156f3565b602082019050919050565b600060208201905081810360008301526157588161571c565b9050919050565b7f4f6e6c79206d616e7566616374757265722063616e2061646400000000000000600082015250565b6000615795601983615676565b91506157a08261575f565b602082019050919050565b600060208201905081810360008301526157c481615788565b9050919050565b7f5061727479206e6f7420666f756e640000000000000000000000000000000000600082015250565b6000615801600f83615676565b915061580c826157cb565b602082019050919050565b60006020820190508181036000830152615830816157f4565b9050919050565b7f4e6f742076616c6964206f7065726174696f6e00000000000000000000000000600082015250565b600061586d601383615676565b915061587882615837565b602082019050919050565b6000602082019050818103600083015261589c81615860565b9050919050565b600081905092915050565b60006158b982614868565b6158c381856158a3565b93506158d3818560208601614884565b80840191505092915050565b60006158eb82846158ae565b915081905092915050565b7f4163636f756e742073686f756c64206e6f74206265206163636f756e74203000600082015250565b600061592c601f83615676565b9150615937826158f6565b602082019050919050565b6000602082019050818103600083015261595b8161591f565b9050919050565b7f63616e6e6f7420686176652073616d65206163636f756e74207769746820746860008201527f652073616d6520726f6c65000000000000000000000000000000000000000000602082015250565b60006159be602b83615676565b91506159c982615962565b604082019050919050565b600060208201905081810360008301526159ed816159b1565b9050919050565b60006159ff82614868565b615a098185615676565b9350615a19818560208601614884565b615a2281614558565b840191505092915050565b615a3681614d74565b82525050565b60006060820190508181036000830152615a5681866159f4565b90508181036020830152615a6a81856159f4565b9050615a796040830184615a2d565b949350505050565b7f757365725f696420697320656d70747900000000000000000000000000000000600082015250565b6000615ab7601083615676565b9150615ac282615a81565b602082019050919050565b60006020820190508181036000830152615ae681615aaa565b9050919050565b615af6816148ff565b82525050565b600060a0820190508181036000830152615b1681886159f4565b90508181036020830152615b2a81876159f4565b90508181036040830152615b3e81866159f4565b9050615b4d6060830185615aed565b615b5a6080830184615aed565b9695505050505050565b600060a0820190508181036000830152615b7e81886159f4565b90508181036020830152615b9281876159f4565b90508181036040830152615ba681866159f4565b90508181036060830152615bba81856159f4565b90508181036080830152615bce81846159f4565b90509695505050505050565b7f4e487b7100000000000000000000000000000000000000000000000000000000600052603260045260246000fd5b7f4e487b7100000000000000000000000000000000000000000000000000000000600052601160045260246000fd5b6000615c43826148ff565b91507fffffffffffffffffffffffffffffffffffffffffffffffffffffffffffffffff821415615c7657615c75615c09565b5b600182019050919050565b6000615c8c826148ff565b9150615c97836148ff565b9250827fffffffffffffffffffffffffffffffffffffffffffffffffffffffffffffffff03821115615ccc57615ccb615c09565b5b828201905092915050565b7f4e487b7100000000000000000000000000000000000000000000000000000000600052600160045260246000fd5b6000615d11826148ff565b9150615d1c836148ff565b925082821015615d2f57615d2e615c09565b5b828203905092915050565b7f4e487b7100000000000000000000000000000000000000000000000000000000600052603160045260246000fdfea26469706673582212203ecdf25e7850755a9e2141e5e462fe86fe176968d1c4ca994839fb31b9ea886364736f6c63430008090033",
  "linkReferences": {},
  "deployedLinkReferences": {}
}